{
  "_format": "hh-sol-artifact-1",
  "contractName": "Blacklistable",
  "sourceName": "contracts/FiatTokenV1.sol",
  "abi": [
    {
      "constant": false,
      "inputs": [
        {
          "name": "_account",
          "type": "address"
        }
      ],
      "name": "unBlacklist",
      "outputs": [],
      "payable": false,
      "stateMutability": "nonpayable",
      "type": "function"
    },
    {
      "constant": true,
      "inputs": [],
      "name": "owner",
      "outputs": [
        {
          "name": "",
          "type": "address"
        }
      ],
      "payable": false,
      "stateMutability": "view",
      "type": "function"
    },
    {
      "constant": false,
      "inputs": [
        {
          "name": "_newBlacklister",
          "type": "address"
        }
      ],
      "name": "updateBlacklister",
      "outputs": [],
      "payable": false,
      "stateMutability": "nonpayable",
      "type": "function"
    },
    {
      "constant": true,
      "inputs": [],
      "name": "blacklister",
      "outputs": [
        {
          "name": "",
          "type": "address"
        }
      ],
      "payable": false,
      "stateMutability": "view",
      "type": "function"
    },
    {
      "constant": false,
      "inputs": [
        {
          "name": "newOwner",
          "type": "address"
        }
      ],
      "name": "transferOwnership",
      "outputs": [],
      "payable": false,
      "stateMutability": "nonpayable",
      "type": "function"
    },
    {
      "constant": false,
      "inputs": [
        {
          "name": "_account",
          "type": "address"
        }
      ],
      "name": "blacklist",
      "outputs": [],
      "payable": false,
      "stateMutability": "nonpayable",
      "type": "function"
    },
    {
      "constant": true,
      "inputs": [
        {
          "name": "_account",
          "type": "address"
        }
      ],
      "name": "isBlacklisted",
      "outputs": [
        {
          "name": "",
          "type": "bool"
        }
      ],
      "payable": false,
      "stateMutability": "view",
      "type": "function"
    },
    {
      "anonymous": false,
      "inputs": [
        {
          "indexed": true,
          "name": "_account",
          "type": "address"
        }
      ],
      "name": "Blacklisted",
      "type": "event"
    },
    {
      "anonymous": false,
      "inputs": [
        {
          "indexed": true,
          "name": "_account",
          "type": "address"
        }
      ],
      "name": "UnBlacklisted",
      "type": "event"
    },
    {
      "anonymous": false,
      "inputs": [
        {
          "indexed": true,
          "name": "newBlacklister",
          "type": "address"
        }
      ],
      "name": "BlacklisterChanged",
      "type": "event"
    },
    {
      "anonymous": false,
      "inputs": [
        {
          "indexed": false,
          "name": "previousOwner",
          "type": "address"
        },
        {
          "indexed": false,
          "name": "newOwner",
          "type": "address"
        }
      ],
      "name": "OwnershipTransferred",
      "type": "event"
    }
  ],
  "bytecode": "0x60806040526100163364010000000061001b810204565b61003d565b60008054600160a060020a031916600160a060020a0392909216919091179055565b6103f88061004c6000396000f3006080604052600436106100825763ffffffff7c01000000000000000000000000000000000000000000000000000000006000350416631a89526681146100875780638da5cb5b146100aa578063ad38bf22146100db578063bd102430146100fc578063f2fde38b14610111578063f9f92be414610132578063fe575a8714610153575b600080fd5b34801561009357600080fd5b506100a8600160a060020a0360043516610188565b005b3480156100b657600080fd5b506100bf6101e8565b60408051600160a060020a039092168252519081900360200190f35b3480156100e757600080fd5b506100a8600160a060020a03600435166101f7565b34801561010857600080fd5b506100bf610285565b34801561011d57600080fd5b506100a8600160a060020a0360043516610294565b34801561013e57600080fd5b506100a8600160a060020a036004351661031c565b34801561015f57600080fd5b50610174600160a060020a036004351661037f565b604080519115158252519081900360200190f35b600154600160a060020a0316331461019f57600080fd5b600160a060020a038116600081815260026020526040808220805460ff19169055517f117e3210bb9aa7d9baff172026820255c6f6c30ba8999d1c2fd88e2848137c4e9190a250565b600054600160a060020a031690565b6101ff6101e8565b600160a060020a0316331461021357600080fd5b600160a060020a038116151561022857600080fd5b6001805473ffffffffffffffffffffffffffffffffffffffff1916600160a060020a0383811691909117918290556040519116907fc67398012c111ce95ecb7429b933096c977380ee6c421175a71a4a4c6c88c06e90600090a250565b600154600160a060020a031681565b61029c6101e8565b600160a060020a031633146102b057600080fd5b600160a060020a03811615156102c557600080fd5b7f8be0079c531659141344cd1fd0a4f28419497f9722a3daafe3b4186f6b6457e06102ee6101e8565b60408051600160a060020a03928316815291841660208301528051918290030190a16103198161039d565b50565b600154600160a060020a0316331461033357600080fd5b600160a060020a038116600081815260026020526040808220805460ff19166001179055517fffa4e6181777692565cf28528fc88fd1516ea86b56da075235fa575af6a4b8559190a250565b600160a060020a031660009081526002602052604090205460ff1690565b6000805473ffffffffffffffffffffffffffffffffffffffff1916600160a060020a03929092169190911790555600a165627a7a723058207fd05550c86ce68779fd8b4b863cbc32c622152f3718dd031d06f3766dd200900029",
  "linkReferences": {},
  "deployedLinkReferences": {}
}