{
  "_format": "hh-sol-artifact-1",
  "contractName": "FiatTokenV1",
  "sourceName": "contracts/FiatTokenV1.sol",
  "abi": [
    {
      "constant": true,
      "inputs": [],
      "name": "name",
      "outputs": [
        {
          "name": "",
          "type": "string"
        }
      ],
      "payable": false,
      "stateMutability": "view",
      "type": "function"
    },
    {
      "constant": false,
      "inputs": [
        {
          "name": "_spender",
          "type": "address"
        },
        {
          "name": "_value",
          "type": "uint256"
        }
      ],
      "name": "approve",
      "outputs": [
        {
          "name": "",
          "type": "bool"
        }
      ],
      "payable": false,
      "stateMutability": "nonpayable",
      "type": "function"
    },
    {
      "constant": true,
      "inputs": [],
      "name": "totalSupply",
      "outputs": [
        {
          "name": "",
          "type": "uint256"
        }
      ],
      "payable": false,
      "stateMutability": "view",
      "type": "function"
    },
    {
      "constant": false,
      "inputs": [
        {
          "name": "_account",
          "type": "address"
        }
      ],
      "name": "unBlacklist",
      "outputs": [],
      "payable": false,
      "stateMutability": "nonpayable",
      "type": "function"
    },
    {
      "constant": false,
      "inputs": [
        {
          "name": "_from",
          "type": "address"
        },
        {
          "name": "_to",
          "type": "address"
        },
        {
          "name": "_value",
          "type": "uint256"
        }
      ],
      "name": "transferFrom",
      "outputs": [
        {
          "name": "",
          "type": "bool"
        }
      ],
      "payable": false,
      "stateMutability": "nonpayable",
      "type": "function"
    },
    {
      "constant": false,
      "inputs": [
        {
          "name": "minter",
          "type": "address"
        }
      ],
      "name": "removeMinter",
      "outputs": [
        {
          "name": "",
          "type": "bool"
        }
      ],
      "payable": false,
      "stateMutability": "nonpayable",
      "type": "function"
    },
    {
      "constant": true,
      "inputs": [],
      "name": "decimals",
      "outputs": [
        {
          "name": "",
          "type": "uint8"
        }
      ],
      "payable": false,
      "stateMutability": "view",
      "type": "function"
    },
    {
      "constant": true,
      "inputs": [],
      "name": "masterMinter",
      "outputs": [
        {
          "name": "",
          "type": "address"
        }
      ],
      "payable": false,
      "stateMutability": "view",
      "type": "function"
    },
    {
      "constant": false,
      "inputs": [
        {
          "name": "_name",
          "type": "string"
        },
        {
          "name": "_symbol",
          "type": "string"
        },
        {
          "name": "_currency",
          "type": "string"
        },
        {
          "name": "_decimals",
          "type": "uint8"
        },
        {
          "name": "_masterMinter",
          "type": "address"
        },
        {
          "name": "_pauser",
          "type": "address"
        },
        {
          "name": "_blacklister",
          "type": "address"
        },
        {
          "name": "_owner",
          "type": "address"
        }
      ],
      "name": "initiate",
      "outputs": [],
      "payable": false,
      "stateMutability": "nonpayable",
      "type": "function"
    },
    {
      "constant": false,
      "inputs": [],
      "name": "unpause",
      "outputs": [],
      "payable": false,
      "stateMutability": "nonpayable",
      "type": "function"
    },
    {
      "constant": false,
      "inputs": [
        {
          "name": "_to",
          "type": "address"
        },
        {
          "name": "_amount",
          "type": "uint256"
        }
      ],
      "name": "mint",
      "outputs": [
        {
          "name": "",
          "type": "bool"
        }
      ],
      "payable": false,
      "stateMutability": "nonpayable",
      "type": "function"
    },
    {
      "constant": false,
      "inputs": [
        {
          "name": "_amount",
          "type": "uint256"
        }
      ],
      "name": "burn",
      "outputs": [],
      "payable": false,
      "stateMutability": "nonpayable",
      "type": "function"
    },
    {
      "constant": false,
      "inputs": [
        {
          "name": "minter",
          "type": "address"
        },
        {
          "name": "minterAllowedAmount",
          "type": "uint256"
        }
      ],
      "name": "configureMinter",
      "outputs": [
        {
          "name": "",
          "type": "bool"
        }
      ],
      "payable": false,
      "stateMutability": "nonpayable",
      "type": "function"
    },
    {
      "constant": false,
      "inputs": [
        {
          "name": "_newPauser",
          "type": "address"
        }
      ],
      "name": "updatePauser",
      "outputs": [],
      "payable": false,
      "stateMutability": "nonpayable",
      "type": "function"
    },
    {
      "constant": true,
      "inputs": [],
      "name": "paused",
      "outputs": [
        {
          "name": "",
          "type": "bool"
        }
      ],
      "payable": false,
      "stateMutability": "view",
      "type": "function"
    },
    {
      "constant": true,
      "inputs": [
        {
          "name": "account",
          "type": "address"
        }
      ],
      "name": "balanceOf",
      "outputs": [
        {
          "name": "",
          "type": "uint256"
        }
      ],
      "payable": false,
      "stateMutability": "view",
      "type": "function"
    },
    {
      "constant": false,
      "inputs": [],
      "name": "pause",
      "outputs": [],
      "payable": false,
      "stateMutability": "nonpayable",
      "type": "function"
    },
    {
      "constant": true,
      "inputs": [
        {
          "name": "minter",
          "type": "address"
        }
      ],
      "name": "minterAllowance",
      "outputs": [
        {
          "name": "",
          "type": "uint256"
        }
      ],
      "payable": false,
      "stateMutability": "view",
      "type": "function"
    },
    {
      "constant": true,
      "inputs": [],
      "name": "owner",
      "outputs": [
        {
          "name": "",
          "type": "address"
        }
      ],
      "payable": false,
      "stateMutability": "view",
      "type": "function"
    },
    {
      "constant": true,
      "inputs": [],
      "name": "symbol",
      "outputs": [
        {
          "name": "",
          "type": "string"
        }
      ],
      "payable": false,
      "stateMutability": "view",
      "type": "function"
    },
    {
      "constant": true,
      "inputs": [],
      "name": "pauser",
      "outputs": [
        {
          "name": "",
          "type": "address"
        }
      ],
      "payable": false,
      "stateMutability": "view",
      "type": "function"
    },
    {
      "constant": false,
      "inputs": [
        {
          "name": "_to",
          "type": "address"
        },
        {
          "name": "_value",
          "type": "uint256"
        }
      ],
      "name": "transfer",
      "outputs": [
        {
          "name": "",
          "type": "bool"
        }
      ],
      "payable": false,
      "stateMutability": "nonpayable",
      "type": "function"
    },
    {
      "constant": false,
      "inputs": [
        {
          "name": "_newMasterMinter",
          "type": "address"
        }
      ],
      "name": "updateMasterMinter",
      "outputs": [],
      "payable": false,
      "stateMutability": "nonpayable",
      "type": "function"
    },
    {
      "constant": true,
      "inputs": [
        {
          "name": "account",
          "type": "address"
        }
      ],
      "name": "isMinter",
      "outputs": [
        {
          "name": "",
          "type": "bool"
        }
      ],
      "payable": false,
      "stateMutability": "view",
      "type": "function"
    },
    {
      "constant": false,
      "inputs": [
        {
          "name": "_newBlacklister",
          "type": "address"
        }
      ],
      "name": "updateBlacklister",
      "outputs": [],
      "payable": false,
      "stateMutability": "nonpayable",
      "type": "function"
    },
    {
      "constant": true,
      "inputs": [],
      "name": "blacklister",
      "outputs": [
        {
          "name": "",
          "type": "address"
        }
      ],
      "payable": false,
      "stateMutability": "view",
      "type": "function"
    },
    {
      "constant": true,
      "inputs": [
        {
          "name": "owner",
          "type": "address"
        },
        {
          "name": "spender",
          "type": "address"
        }
      ],
      "name": "allowance",
      "outputs": [
        {
          "name": "",
          "type": "uint256"
        }
      ],
      "payable": false,
      "stateMutability": "view",
      "type": "function"
    },
    {
      "constant": true,
      "inputs": [],
      "name": "currency",
      "outputs": [
        {
          "name": "",
          "type": "string"
        }
      ],
      "payable": false,
      "stateMutability": "view",
      "type": "function"
    },
    {
      "constant": false,
      "inputs": [
        {
          "name": "newOwner",
          "type": "address"
        }
      ],
      "name": "transferOwnership",
      "outputs": [],
      "payable": false,
      "stateMutability": "nonpayable",
      "type": "function"
    },
    {
      "constant": false,
      "inputs": [
        {
          "name": "_account",
          "type": "address"
        }
      ],
      "name": "blacklist",
      "outputs": [],
      "payable": false,
      "stateMutability": "nonpayable",
      "type": "function"
    },
    {
      "constant": true,
      "inputs": [
        {
          "name": "_account",
          "type": "address"
        }
      ],
      "name": "isBlacklisted",
      "outputs": [
        {
          "name": "",
          "type": "bool"
        }
      ],
      "payable": false,
      "stateMutability": "view",
      "type": "function"
    },
    {
      "inputs": [
        {
          "name": "_name",
          "type": "string"
        },
        {
          "name": "_symbol",
          "type": "string"
        },
        {
          "name": "_currency",
          "type": "string"
        },
        {
          "name": "_decimals",
          "type": "uint8"
        },
        {
          "name": "_owner",
          "type": "address"
        }
      ],
      "payable": false,
      "stateMutability": "nonpayable",
      "type": "constructor"
    },
    {
      "anonymous": false,
      "inputs": [
        {
          "indexed": true,
          "name": "minter",
          "type": "address"
        },
        {
          "indexed": true,
          "name": "to",
          "type": "address"
        },
        {
          "indexed": false,
          "name": "amount",
          "type": "uint256"
        }
      ],
      "name": "Mint",
      "type": "event"
    },
    {
      "anonymous": false,
      "inputs": [
        {
          "indexed": true,
          "name": "burner",
          "type": "address"
        },
        {
          "indexed": false,
          "name": "amount",
          "type": "uint256"
        }
      ],
      "name": "Burn",
      "type": "event"
    },
    {
      "anonymous": false,
      "inputs": [
        {
          "indexed": true,
          "name": "minter",
          "type": "address"
        },
        {
          "indexed": false,
          "name": "minterAllowedAmount",
          "type": "uint256"
        }
      ],
      "name": "MinterConfigured",
      "type": "event"
    },
    {
      "anonymous": false,
      "inputs": [
        {
          "indexed": true,
          "name": "oldMinter",
          "type": "address"
        }
      ],
      "name": "MinterRemoved",
      "type": "event"
    },
    {
      "anonymous": false,
      "inputs": [
        {
          "indexed": true,
          "name": "newMasterMinter",
          "type": "address"
        }
      ],
      "name": "MasterMinterChanged",
      "type": "event"
    },
    {
      "anonymous": false,
      "inputs": [
        {
          "indexed": true,
          "name": "_account",
          "type": "address"
        }
      ],
      "name": "Blacklisted",
      "type": "event"
    },
    {
      "anonymous": false,
      "inputs": [
        {
          "indexed": true,
          "name": "_account",
          "type": "address"
        }
      ],
      "name": "UnBlacklisted",
      "type": "event"
    },
    {
      "anonymous": false,
      "inputs": [
        {
          "indexed": true,
          "name": "newBlacklister",
          "type": "address"
        }
      ],
      "name": "BlacklisterChanged",
      "type": "event"
    },
    {
      "anonymous": false,
      "inputs": [],
      "name": "Pause",
      "type": "event"
    },
    {
      "anonymous": false,
      "inputs": [],
      "name": "Unpause",
      "type": "event"
    },
    {
      "anonymous": false,
      "inputs": [
        {
          "indexed": true,
          "name": "newAddress",
          "type": "address"
        }
      ],
      "name": "PauserChanged",
      "type": "event"
    },
    {
      "anonymous": false,
      "inputs": [
        {
          "indexed": true,
          "name": "owner",
          "type": "address"
        },
        {
          "indexed": true,
          "name": "spender",
          "type": "address"
        },
        {
          "indexed": false,
          "name": "value",
          "type": "uint256"
        }
      ],
      "name": "Approval",
      "type": "event"
    },
    {
      "anonymous": false,
      "inputs": [
        {
          "indexed": false,
          "name": "previousOwner",
          "type": "address"
        },
        {
          "indexed": false,
          "name": "newOwner",
          "type": "address"
        }
      ],
      "name": "OwnershipTransferred",
      "type": "event"
    },
    {
      "anonymous": false,
      "inputs": [
        {
          "indexed": true,
          "name": "from",
          "type": "address"
        },
        {
          "indexed": true,
          "name": "to",
          "type": "address"
        },
        {
          "indexed": false,
          "name": "value",
          "type": "uint256"
        }
      ],
      "name": "Transfer",
      "type": "event"
    }
  ],
  "bytecode": "0x60806040526001805460a060020a60ff02191690556000600b553480156200002657600080fd5b506040516200194e3803806200194e8339810160409081528151602083015191830151606084015160808501519285019493840193919091019162000074336401000000006200009a810204565b6200008f8585858585808080640100000000620000bc810204565b5050505050620002b6565b60008054600160a060020a031916600160a060020a0392909216919091179055565b60085474010000000000000000000000000000000000000000900460ff1615620000e557600080fd5b600160a060020a0384161515620000fb57600080fd5b600160a060020a03831615156200011157600080fd5b600160a060020a03821615156200012757600080fd5b600160a060020a03811615156200013d57600080fd5b8751620001529060049060208b019062000211565b508651620001689060059060208a019062000211565b5085516200017e90600790602089019062000211565b506006805460ff191660ff871617905560088054600160a060020a0319908116600160a060020a038781169190911790925560018054821686841617905560028054909116918416919091179055620001e0816401000000006200009a810204565b50506008805460a060020a60ff02191674010000000000000000000000000000000000000000179055505050505050565b828054600181600116156101000203166002900490600052602060002090601f016020900481019282601f106200025457805160ff191683800117855562000284565b8280016001018555821562000284579182015b828111156200028457825182559160200191906001019062000267565b506200029292915062000296565b5090565b620002b391905b808211156200029257600081556001016200029d565b90565b61168880620002c66000396000f30060806040526004361061018a5763ffffffff7c010000000000000000000000000000000000000000000000000000000060003504166306fdde03811461018f578063095ea7b31461021957806318160ddd146102515780631a8952661461027857806323b872dd1461029b5780633092afd5146102c5578063313ce567146102e657806335d99f35146103115780633bb07a2c146103425780633f4ba83a1461044157806340c10f191461045657806342966c681461047a5780634e44d95614610492578063554bab3c146104b65780635c975abb146104d757806370a08231146104ec5780638456cb591461050d5780638a6db9c3146105225780638da5cb5b1461054357806395d89b41146105585780639fd0506d1461056d578063a9059cbb14610582578063aa20e1e4146105a6578063aa271e1a146105c7578063ad38bf22146105e8578063bd10243014610609578063dd62ed3e1461061e578063e5a6b10f14610645578063f2fde38b1461065a578063f9f92be41461067b578063fe575a871461069c575b600080fd5b34801561019b57600080fd5b506101a46106bd565b6040805160208082528351818301528351919283929083019185019080838360005b838110156101de5781810151838201526020016101c6565b50505050905090810190601f16801561020b5780820380516001836020036101000a031916815260200191505b509250505060405180910390f35b34801561022557600080fd5b5061023d600160a060020a036004351660243561074b565b604080519115158252519081900360200190f35b34801561025d57600080fd5b50610266610813565b60408051918252519081900360200190f35b34801561028457600080fd5b50610299600160a060020a036004351661081a565b005b3480156102a757600080fd5b5061023d600160a060020a036004358116906024351660443561087a565b3480156102d157600080fd5b5061023d600160a060020a0360043516610a69565b3480156102f257600080fd5b506102fb610ade565b6040805160ff9092168252519081900360200190f35b34801561031d57600080fd5b50610326610ae7565b60408051600160a060020a039092168252519081900360200190f35b34801561034e57600080fd5b506040805160206004803580820135601f810184900484028501840190955284845261029994369492936024939284019190819084018382808284375050604080516020601f89358b018035918201839004830284018301909452808352979a99988101979196509182019450925082915084018382808284375050604080516020601f89358b018035918201839004830284018301909452808352979a9998810197919650918201945092508291508401838280828437509497505060ff853516955050600160a060020a03602085013581169460408101358216945060608101358216935060800135169050610af6565b34801561044d57600080fd5b50610299610c2e565b34801561046257600080fd5b5061023d600160a060020a0360043516602435610c8e565b34801561048657600080fd5b50610299600435610ddd565b34801561049e57600080fd5b5061023d600160a060020a0360043516602435610ef9565b3480156104c257600080fd5b50610299600160a060020a0360043516610f95565b3480156104e357600080fd5b5061023d611023565b3480156104f857600080fd5b50610266600160a060020a0360043516611033565b34801561051957600080fd5b5061029961104e565b34801561052e57600080fd5b50610266600160a060020a03600435166110b4565b34801561054f57600080fd5b506103266110cf565b34801561056457600080fd5b506101a46110de565b34801561057957600080fd5b50610326611139565b34801561058e57600080fd5b5061023d600160a060020a0360043516602435611148565b3480156105b257600080fd5b50610299600160a060020a0360043516611278565b3480156105d357600080fd5b5061023d600160a060020a0360043516611306565b3480156105f457600080fd5b50610299600160a060020a0360043516611324565b34801561061557600080fd5b506103266113b2565b34801561062a57600080fd5b50610266600160a060020a03600435811690602435166113c1565b34801561065157600080fd5b506101a46113ec565b34801561066657600080fd5b50610299600160a060020a0360043516611447565b34801561068757600080fd5b50610299600160a060020a03600435166114cf565b3480156106a857600080fd5b5061023d600160a060020a0360043516611532565b6004805460408051602060026001851615610100026000190190941693909304601f810184900484028201840190925281815292918301828280156107435780601f1061071857610100808354040283529160200191610743565b820191906000526020600020905b81548152906001019060200180831161072657829003601f168201915b505050505081565b60015460009060a060020a900460ff161561076557600080fd5b3360008181526003602052604090205460ff161561078257600080fd5b600160a060020a038416600090815260036020526040902054849060ff16156107aa57600080fd5b336000818152600a60209081526040808320600160a060020a038a1680855290835292819020889055805188815290519293927f8c5be1e5ebec7d5bd14f71427d1e84f3dd0314c0f7b2291e5b200ac8c7c3b925929181900390910190a3506001949350505050565b600b545b90565b600254600160a060020a0316331461083157600080fd5b600160a060020a038116600081815260036020526040808220805460ff19169055517f117e3210bb9aa7d9baff172026820255c6f6c30ba8999d1c2fd88e2848137c4e9190a250565b60015460009060a060020a900460ff161561089457600080fd5b600160a060020a038316600090815260036020526040902054839060ff16156108bc57600080fd5b3360008181526003602052604090205460ff16156108d957600080fd5b600160a060020a038616600090815260036020526040902054869060ff161561090157600080fd5b600160a060020a038616151561091657600080fd5b600160a060020a03871660009081526009602052604090205485111561093b57600080fd5b600160a060020a0387166000908152600a6020908152604080832033845290915290205485111561096b57600080fd5b600160a060020a038716600090815260096020526040902054610994908663ffffffff61155016565b600160a060020a0380891660009081526009602052604080822093909355908816815220546109c9908663ffffffff61156216565b600160a060020a03808816600090815260096020908152604080832094909455918a168152600a82528281203382529091522054610a0d908663ffffffff61155016565b600160a060020a038089166000818152600a602090815260408083203384528252918290209490945580518981529051928a1693919260008051602061163d833981519152929181900390910190a35060019695505050505050565b600854600090600160a060020a03163314610a8357600080fd5b600160a060020a0382166000818152600c60209081526040808320805460ff19169055600d909152808220829055517fe94479a9f7e1952cc78f2d6baab678adc1b772d936c6583def489e524cb666929190a2506001919050565b60065460ff1681565b600854600160a060020a031681565b60085460a060020a900460ff1615610b0d57600080fd5b600160a060020a0384161515610b2257600080fd5b600160a060020a0383161515610b3757600080fd5b600160a060020a0382161515610b4c57600080fd5b600160a060020a0381161515610b6157600080fd5b8751610b749060049060208b01906115a4565b508651610b889060059060208a01906115a4565b508551610b9c9060079060208901906115a4565b506006805460ff191660ff87161790556008805473ffffffffffffffffffffffffffffffffffffffff19908116600160a060020a038781169190911790925560018054821686841617905560028054909116918416919091179055610c0081611575565b50506008805474ff0000000000000000000000000000000000000000191660a060020a179055505050505050565b600154600160a060020a03163314610c4557600080fd5b6001805474ff0000000000000000000000000000000000000000191690556040517f7805862f689e2f13df9f062ff482ad3ad112aca9e0847911ed832e158c525b3390600090a1565b60015460009060a060020a900460ff1615610ca857600080fd5b3360008181526003602052604090205460ff1615610cc557600080fd5b600160a060020a038416600090815260036020526040902054849060ff1615610ced57600080fd5b600160a060020a0385161515610d0257600080fd5b60008411610d0f57600080fd5b600b54610d22908563ffffffff61156216565b600b55600160a060020a038516600090815260096020526040902054610d4e908563ffffffff61156216565b600160a060020a0386166000818152600960209081526040918290209390935580518781529051919233927fab8530f87dc9b59234c4623bf917212bb2536d647574c8e7e5da92c2ede0c9f89281900390910190a3604080518581529051600160a060020a0387169160009160008051602061163d8339815191529181900360200190a3506001949350505050565b60015460009060a060020a900460ff1615610df757600080fd5b336000908152600c602052604090205460ff161515600114610e1857600080fd5b3360008181526003602052604090205460ff1615610e3557600080fd5b3360009081526009602052604081205492508311610e5257600080fd5b82821015610e5f57600080fd5b600b54610e72908463ffffffff61155016565b600b55610e85828463ffffffff61155016565b33600081815260096020908152604091829020939093558051868152905191927fcc16f5dbb4873280815c1ee09dbd06736cffcc184412cf7a71a0fdb75d397ca592918290030190a2604080518481529051600091339160008051602061163d8339815191529181900360200190a3505050565b60015460009060a060020a900460ff1615610f1357600080fd5b600854600160a060020a03163314610f2a57600080fd5b600160a060020a0383166000818152600c60209081526040808320805460ff19166001179055600d825291829020859055815185815291517f46980fca912ef9bcdbd36877427b6b90e860769f604e89c0e67720cece530d209281900390910190a250600192915050565b610f9d6110cf565b600160a060020a03163314610fb157600080fd5b600160a060020a0381161515610fc657600080fd5b6001805473ffffffffffffffffffffffffffffffffffffffff1916600160a060020a0383811691909117918290556040519116907fb80482a293ca2e013eda8683c9bd7fc8347cfdaeea5ede58cba46df502c2a60490600090a250565b60015460a060020a900460ff1681565b600160a060020a031660009081526009602052604090205490565b600154600160a060020a0316331461106557600080fd5b6001805474ff0000000000000000000000000000000000000000191660a060020a1790556040517f6985a02210a168e66602d3235cb6db0e70f92b3ba4d376a33c0f3d9434bff62590600090a1565b600160a060020a03166000908152600d602052604090205490565b600054600160a060020a031690565b6005805460408051602060026001851615610100026000190190941693909304601f810184900484028201840190925281815292918301828280156107435780601f1061071857610100808354040283529160200191610743565b600154600160a060020a031681565b60015460009060a060020a900460ff161561116257600080fd5b3360008181526003602052604090205460ff161561117f57600080fd5b600160a060020a038416600090815260036020526040902054849060ff16156111a757600080fd5b600160a060020a03851615156111bc57600080fd5b336000908152600960205260409020548411156111d857600080fd5b336000908152600960205260409020546111f8908563ffffffff61155016565b3360009081526009602052604080822092909255600160a060020a0387168152205461122a908563ffffffff61156216565b600160a060020a03861660008181526009602090815260409182902093909355805187815290519192339260008051602061163d8339815191529281900390910190a3506001949350505050565b6112806110cf565b600160a060020a0316331461129457600080fd5b600160a060020a03811615156112a957600080fd5b6008805473ffffffffffffffffffffffffffffffffffffffff1916600160a060020a0383811691909117918290556040519116907fdb66dfa9c6b8f5226fe9aac7e51897ae8ee94ac31dc70bb6c9900b2574b707e690600090a250565b600160a060020a03166000908152600c602052604090205460ff1690565b61132c6110cf565b600160a060020a0316331461134057600080fd5b600160a060020a038116151561135557600080fd5b6002805473ffffffffffffffffffffffffffffffffffffffff1916600160a060020a0383811691909117918290556040519116907fc67398012c111ce95ecb7429b933096c977380ee6c421175a71a4a4c6c88c06e90600090a250565b600254600160a060020a031681565b600160a060020a039182166000908152600a6020908152604080832093909416825291909152205490565b6007805460408051602060026001851615610100026000190190941693909304601f810184900484028201840190925281815292918301828280156107435780601f1061071857610100808354040283529160200191610743565b61144f6110cf565b600160a060020a0316331461146357600080fd5b600160a060020a038116151561147857600080fd5b7f8be0079c531659141344cd1fd0a4f28419497f9722a3daafe3b4186f6b6457e06114a16110cf565b60408051600160a060020a03928316815291841660208301528051918290030190a16114cc81611575565b50565b600254600160a060020a031633146114e657600080fd5b600160a060020a038116600081815260036020526040808220805460ff19166001179055517fffa4e6181777692565cf28528fc88fd1516ea86b56da075235fa575af6a4b8559190a250565b600160a060020a031660009081526003602052604090205460ff1690565b60008282111561155c57fe5b50900390565b8181018281101561156f57fe5b92915050565b6000805473ffffffffffffffffffffffffffffffffffffffff1916600160a060020a0392909216919091179055565b828054600181600116156101000203166002900490600052602060002090601f016020900481019282601f106115e557805160ff1916838001178555611612565b82800160010185558215611612579182015b828111156116125782518255916020019190600101906115f7565b5061161e929150611622565b5090565b61081791905b8082111561161e57600081556001016116285600ddf252ad1be2c89b69c2b068fc378daa952ba7f163c4a11628f55a4df523b3efa165627a7a723058202882cc5ecc639a05294a9644de206a09b8e443ba3e7d6f796e1c1d617510872d0029",
  "linkReferences": {},
  "deployedLinkReferences": {}
}