{
  "_format": "hh-sol-artifact-1",
  "contractName": "Pausable",
  "sourceName": "contracts/FiatTokenV1.sol",
  "abi": [
    {
      "constant": false,
      "inputs": [],
      "name": "unpause",
      "outputs": [],
      "payable": false,
      "stateMutability": "nonpayable",
      "type": "function"
    },
    {
      "constant": false,
      "inputs": [
        {
          "name": "_newPauser",
          "type": "address"
        }
      ],
      "name": "updatePauser",
      "outputs": [],
      "payable": false,
      "stateMutability": "nonpayable",
      "type": "function"
    },
    {
      "constant": true,
      "inputs": [],
      "name": "paused",
      "outputs": [
        {
          "name": "",
          "type": "bool"
        }
      ],
      "payable": false,
      "stateMutability": "view",
      "type": "function"
    },
    {
      "constant": false,
      "inputs": [],
      "name": "pause",
      "outputs": [],
      "payable": false,
      "stateMutability": "nonpayable",
      "type": "function"
    },
    {
      "constant": true,
      "inputs": [],
      "name": "owner",
      "outputs": [
        {
          "name": "",
          "type": "address"
        }
      ],
      "payable": false,
      "stateMutability": "view",
      "type": "function"
    },
    {
      "constant": true,
      "inputs": [],
      "name": "pauser",
      "outputs": [
        {
          "name": "",
          "type": "address"
        }
      ],
      "payable": false,
      "stateMutability": "view",
      "type": "function"
    },
    {
      "constant": false,
      "inputs": [
        {
          "name": "newOwner",
          "type": "address"
        }
      ],
      "name": "transferOwnership",
      "outputs": [],
      "payable": false,
      "stateMutability": "nonpayable",
      "type": "function"
    },
    {
      "anonymous": false,
      "inputs": [],
      "name": "Pause",
      "type": "event"
    },
    {
      "anonymous": false,
      "inputs": [],
      "name": "Unpause",
      "type": "event"
    },
    {
      "anonymous": false,
      "inputs": [
        {
          "indexed": true,
          "name": "newAddress",
          "type": "address"
        }
      ],
      "name": "PauserChanged",
      "type": "event"
    },
    {
      "anonymous": false,
      "inputs": [
        {
          "indexed": false,
          "name": "previousOwner",
          "type": "address"
        },
        {
          "indexed": false,
          "name": "newOwner",
          "type": "address"
        }
      ],
      "name": "OwnershipTransferred",
      "type": "event"
    }
  ],
  "bytecode": "0x60806040526001805460a060020a60ff02191690556100263364010000000061002b810204565b61004d565b60008054600160a060020a031916600160a060020a0392909216919091179055565b6103eb8061005c6000396000f3006080604052600436106100825763ffffffff7c01000000000000000000000000000000000000000000000000000000006000350416633f4ba83a8114610087578063554bab3c1461009e5780635c975abb146100bf5780638456cb59146100e85780638da5cb5b146100fd5780639fd0506d1461012e578063f2fde38b14610143575b600080fd5b34801561009357600080fd5b5061009c610164565b005b3480156100aa57600080fd5b5061009c600160a060020a03600435166101c4565b3480156100cb57600080fd5b506100d4610252565b604080519115158252519081900360200190f35b3480156100f457600080fd5b5061009c610273565b34801561010957600080fd5b506101126102ea565b60408051600160a060020a039092168252519081900360200190f35b34801561013a57600080fd5b506101126102f9565b34801561014f57600080fd5b5061009c600160a060020a0360043516610308565b600154600160a060020a0316331461017b57600080fd5b6001805474ff0000000000000000000000000000000000000000191690556040517f7805862f689e2f13df9f062ff482ad3ad112aca9e0847911ed832e158c525b3390600090a1565b6101cc6102ea565b600160a060020a031633146101e057600080fd5b600160a060020a03811615156101f557600080fd5b6001805473ffffffffffffffffffffffffffffffffffffffff1916600160a060020a0383811691909117918290556040519116907fb80482a293ca2e013eda8683c9bd7fc8347cfdaeea5ede58cba46df502c2a60490600090a250565b60015474010000000000000000000000000000000000000000900460ff1681565b600154600160a060020a0316331461028a57600080fd5b6001805474ff00000000000000000000000000000000000000001916740100000000000000000000000000000000000000001790556040517f6985a02210a168e66602d3235cb6db0e70f92b3ba4d376a33c0f3d9434bff62590600090a1565b600054600160a060020a031690565b600154600160a060020a031681565b6103106102ea565b600160a060020a0316331461032457600080fd5b600160a060020a038116151561033957600080fd5b7f8be0079c531659141344cd1fd0a4f28419497f9722a3daafe3b4186f6b6457e06103626102ea565b60408051600160a060020a03928316815291841660208301528051918290030190a161038d81610390565b50565b6000805473ffffffffffffffffffffffffffffffffffffffff1916600160a060020a03929092169190911790555600a165627a7a72305820219de7ba7b487e17b2393f43742e7cb22787d52658dc8171c290b17e7893af5f0029",
  "linkReferences": {},
  "deployedLinkReferences": {}
}